:100000000C9434000C9451000C9451000C94510049
:100010000C9451000C9451000C9451000C9451001C
:100020000C9451000C9490070C9451000C945100C6
:100030000C9451000C9451000C9451000C945100FC
:100040000C9451000C9451000C9451000C945100EC
:100050000C9451000C9451000C9451000C945100DC
:100060000C9451000C94510011241FBECFEFD8E026
:10007000DEBFCDBF11E0A0E0B1E0EAE6F5E102C0ED
:1000800005900D92A032B107D9F711E0A0E2B1E0DE
:1000900001C01D92AC34B107E1F70E94AC000C9492
:1000A000B30A0C940000809117018F5F80931701B1
:1000B0000895BC010E94B7050895CF93DF93EC012A
:1000C000882799278C1B9D0BBE010E94B70580E8ED
:1000D0009EE3BE010E949008CB010E940208DF91BE
:1000E000CF91089580E090E060E070E00E94B70555
:1000F0000895CF93DF93EC0126C080E060E00E947A
:10010000E50280E091E00E942402BE01882777FD8D
:100110008095982F0E94860282E00E943A068823EA
:1001200031F0CB30D1050CF02A9782E00AC080E292
:100130000E943A06882339F0C63FD1050CF42A966E
:1001400080E20E941A0680E10E943A068823A9F202
:10015000CE01DF91CF910895CF93DF93CDE7D0E02B
:10016000CE010E947900EC0180E10E941A060E94F3
:100170001E0286E091E00E94310280E061E00E9470
:1001800005038EE091E00E94310280E10E940506A5
:1001900080E10E941A0684E690E00E940208CE01E7
:1001A0000E94590084EF91E00E940208CE010E9453
:1001B0005D000E947200D4CF80E090E0089581E05D
:1001C00090E06F9364E06A95F1F76F910197C9F73A
:1001D000089508950F931F93CF93DF931AB1579803
:1001E0005A98289AC0E0D0E00E94DF005C9A0E94F2
:1001F000DF0009B15C980E94DF005C9A0E94DF007A
:100200005C9807FF11C024969E0140E050E0809169
:10021000240190912501A0912601B0912701281772
:1002200039074A075B0700F31AB9DF91CF911F9195
:100230000F91089565B190E0AC0141705070440F8A
:10024000551F9C012670307053E0220F331F5A95C2
:10025000E1F7242B6D7C262B25B92BB1887090708B
:1002600034E0880F991F3A95E1F72F77282B2BB9A7
:100270005C9A0E94DF005C980E94DF000895A2E073
:10028000B0E0E5E4F1E00C94D008E82E4A836983FD
:100290000E94E8010E94EA0014B1D5B0FAB00BB197
:1002A000289869814A81662311F05A9A01C05A98A8
:1002B00084B1826384B9579A413029F08E2D82959A
:1002C0008F700E941A018E2D8F700E941A01FAB849
:1002D0000BB914B9D5B82296E7E00C94EC0860E0AD
:1002E00042E00E943F01089561E042E00E943F0128
:1002F0000895EF92FF921F93DF93CF930F92CDB7A4
:10030000DEB7660F660F660F7C0110E0812F860F47
:10031000806469830E946F01F70184910E947401D7
:100320001F5F0894E11CF11C6981183079F70F9068
:10033000CF91DF911F91FF90EF9008950E94790176
:1003400008950E947401089560E041E00E943F0119
:10035000089580E197E2A0E0B0E0809324019093BB
:100360002501A0932601B0932701529A209A549A0E
:100370008EE190E00E94020883E00E94A40186E0E2
:1003800090E00E94020883E00E94A40182E090E0D5
:100390000E94020883E00E94A40182E090E00E9493
:1003A000020882E00E94A40182E090E00E9402081C
:1003B00088E20E946F0188E00E946F0181E00E9444
:1003C0006F0186E00E946F018CE00E946F0108952A
:1003D00080912801882329F481E0809328010E94DC
:1003E000A901089581E00E946F0180912001909100
:1003F0002101009711F1A0E0B0E208C0E0912001D6
:10040000F0912101E20FF31FB083AF5F2A2F30E09C
:100410008091180190E001976091190170E0869F2A
:10042000A001879F500D969F500D1124241735076A
:100430002CF3109223011092220108950E94F201E0
:1004400008950E9474010895CF93DF93C82FD92F88
:1004500002C00E94740189918823D9F7DF91CF915E
:1004600008950E9424020895CF93DF93EC0103C006
:100470000E9474012196FE0184918823C9F7DF91BF
:10048000CF9108950E94340208950E942402089595
:10049000AAE0B0E0EEE4F2E00C94CD089B01AC01E0
:1004A0001AE0EAE0CE2ED12CE12CF12C5E0108946A
:1004B000A11CB11C022FCA01B901A70196010E941B
:1004C000A3081150F501E10FF11D005D922F990F66
:1004D000892F880F880F890F081B0083211531058C
:1004E0004105510539F708C0F601E10FF11D808182
:1004F0000E9474011F5F04C06E010894C11CD11CCE
:100500001A3090F32A96EAE00C94E908EF92FF92F1
:100510000F931F937B018C0197FF0BC010950095E3
:10052000F094E094E11CF11C011D111D8DE20E946C
:100530007401C801B7010E9448021F910F91FF90FA
:10054000EF9008950E94860208950E94480208953F
:100550008A3010F4805D01C0895C0E9474010895A6
:10056000CF93C82F82958F700E94A8028C2F8F7016
:100570000E94A802CF910895CF93C82F892F0E947F
:10058000B0028C2F0E94B002CF9108950E94BC024D
:1005900008950E94B00208951F93CF93DF93182F00
:1005A000D8E0C0E88C2F812311F081E301C080E303
:1005B0000E947401D15011F0C695F4CFDF91CF9114
:1005C0001F9108950E94CC020895A5E0B0E0EBEEE3
:1005D000F2E00C94D408182F80E8898380EC8A8399
:1005E00084E98B8384ED8C83FE01E60FF11D81810C
:1005F000810F6D830E946F01109323016D816093C1
:1006000022012596E3E00C94F0080E94E50208958B
:10061000A0E0B0E0EEE0F3E00C94CF08D82E80919B
:10062000200190912101009709F4FAC08D2D8A30A4
:1006300009F443C08830C9F480912301815080932C
:1006400023018F3F51F48091220181508093220138
:1006500080911901815080932301809122018F3F65
:1006600009F0D8C010922201D3C08D2D0E947401D0
:10067000809122018823B9F090E0019740911901FF
:1006800050E0849F9001859F300D949F300D112480
:1006900080912301E0912001F0912101E20FF31FED
:1006A000E80FF11DD082809123018F5F8093230199
:1006B00090911901891709F0B3C040912201242FAC
:1006C00030E08091180190E001972817390709F070
:1006D0009CC0C0E0D0E041C080E06C2F0E94E502E9
:1006E000CC248E010F5F1F4F33C0EC2CFF2430E071
:1006F000C29FC001C39F900DD29F900D1124E09125
:100700002001F0912101EE0DFF1DE80FF91F8081FE
:100710000E94740180912001909121012091190182
:1007200030E0C29FF001C39FF00DD29FF00D112465
:100730008E0D9F1DE80FF91F029FD001039FB00D82
:10074000129FB00D1124A80FB91F8C918083C39400
:1007500020911901C21648F2E80160911801862F14
:1007600090E00297C817D9070CF4B6CF6230E0F1D9
:10077000625080E00E94E50200E010E231C0C02F2C
:10078000D0E08091180190E0029750E0849F9001A2
:10079000859F300D949F300D1124E0912001F09140
:1007A0002101EC0FFD1FE20FF31F80810E947401F5
:1007B0008091180190E002974091190150E0849FC8
:1007C0009001859F300D949F300D1124E091200100
:1007D000F0912101EC0FFD1FE20FF31F10830F5F5B
:1007E00040911901041758F260911801615080E09E
:1007F0000E94E502C0E004C080E20E947401CF5F65
:1008000080911901C817C0F303C04F5F40932201C4
:100810001092230180912301609122010E94E50240
:100820002D2D332727FD3095C901CDB7DEB7E8E080
:100830000C94EB08813011F48FE001C08EE00E942F
:100840006F0108950E941A0408958CE00E946F01C0
:1008500008950E9425040895CF93DF93C82FD62FC3
:1008600008C0CC2311F480E101C084E10E946F0133
:10087000D150DD23B1F7DF91CF9108950E942C0470
:1008800008950F931F93CF93DF93182F062FEA013C
:100890000BC0112311F488E101C08CE10E946F01AB
:1008A000CE010E9402080150002399F7DF91CF91F9
:1008B0001F910F9108950E94410408958091200195
:1008C00090912101009711F00E94AA09209118012E
:1008D00030E0215030408091190190E0AC01249F1C
:1008E000C001259F900D349F900D11240E94100986
:1008F0009093210180932001009721F1A0E0B0E2C4
:1009000008C0E0912001F0912101E20FF31FB083B4
:10091000AF5F2A2F30E08091180190E0019760913D
:10092000190170E0869FA001879F500D969F500D82
:100930001124241735072CF388E093E06CED70E068
:100940000E94430A08950E945E040895809319014D
:10095000609318010E945E040895809319016093CA
:1009600018010E945E040895FC0111821082138216
:100970001282158214821682683068F489E290E04F
:10098000918380838BE290E0938382838AE290E07C
:100990009583848311C06E30C0F483E290E091832C
:1009A000808385E290E09383828384E290E0958364
:1009B000848370E06850704081E090E002C0880F4E
:1009C000991F6A95E2F7868308956531B8F486E247
:1009D00090E09183808388E290E09383828387E232
:1009E00090E09583848370E06E50704081E090E0E9
:1009F00002C0880F991F6A95E2F786830895FC016B
:100A0000A481B5818681662321F09C91982B9C93CB
:100A100008959C91809589238C930895FC016F3FE4
:100A200031F4A281B3818C91968189270CC0A28177
:100A3000B3818681662321F09C91982B9C93089525
:100A40009C91809589238C930895A7E0B0E0EBE218
:100A5000F5E00C94D208282FF62E8E010F5F1F4F61
:100A6000C801622F0E94B404C8016F2D0E940E05B8
:100A7000C80161E00E94FF042796E5E00C94EE08AF
:100A80000895E0EBF0E083EF8083808184BDE1EBAB
:100A9000F0E082E08083808185BDE4EBF0E01082AD
:100AA0008081E3EBF0E08083808188BD88B587BDDD
:100AB00086E060E00E94250585E060E00E94250553
:100AC0008BE060E00E94250583E060E00E94250540
:100AD000089580912901882329F481E080932901D8
:100AE0000E9441050895CF93DF93EC010E946905B0
:100AF000D7FF05C0D095C195DF4F81E001C080E0F0
:100B0000CF3FD10519F014F0CFEFD0E0882319F0D2
:100B100018BCC7BD02C0C8BD17BCDF91CF910895F6
:100B20000E9473050895CF93DF93EC010E9469053D
:100B3000D7FF05C0D095C195DF4F81E001C080E0AF
:100B4000CF3FD10519F014F0CFEFD0E0882329F082
:100B50001092B400C093B30004C0C093B4001092CC
:100B6000B300DF91CF9108950E9493050895CF932C
:100B7000DF93EB010E947305CE010E949305DF9184
:100B8000CF9108950E94B7050895089584B18D7C92
:100B900084B985B1826385B985E090E06F9364E0A4
:100BA0006A95F1F76F910197C9F7089580912A012D
:100BB000882329F481E080932A010E94C6050895C4
:100BC0001F93CF93DF93182F0E94D605C12FD0E03B
:100BD00023B130E0209530952C233D23211531059C
:100BE000B9F38AE090E00E94020823B130E020953A
:100BF00030952C233D232115310551F383B1809588
:100C00008123DF91CF911F9108950E94E0050895FF
:100C1000CF93C82F0E94D60583B18C23E9F38AE0D5
:100C200090E00E94020883B18C23B1F383B18C233E
:100C3000CF9108950E9408060895CF930E94E00581
:100C4000C82F0E9408068C2FCF9108950E941D0680
:100C50000895A1E0B0E0EFE2F6E00C94D5088983B6
:100C60000E94D60593B19095898189232196E2E06F
:100C70000C94F1080E9429060895EF92FF920F93B9
:100C80001F93CF93DF93D82FC3B1C0950E943C0828
:100C90007B018C010E94D60580913601813029F1BB
:100CA000813038F0823009F447C0833009F082C0C7
:100CB00064C02D2F30E04C2F50E0409550952423F8
:100CC00035232115310509F475C0C095CD23C09396
:100CD0003101E0923201F09233010093340110931C
:100CE000350181E08093360165C080913201909199
:100CF0003301A0913401B0913501E81AF90A0A0BC9
:100D00001B0B8FE0E816F1040105110508F452C031
:100D1000409131018C2F90E080959095242F30E008
:100D200082239323009731F182E080933601C095AE
:100D3000C423C09331013EC0209131018C2F822306
:100D400071F093E09093360180933101E09232018B
:100D5000F092330100933401109335012BC030E041
:100D60008D2F90E0D0E0C095D0958C239D2328173F
:100D7000390701F1109236011DC080913201909126
:100D80003301A0913401B0913501E81AF90A0A0B38
:100D90001B0B8FE0E816F1040105110558F0809156
:100DA00031018C2319F01092360105C092E0909326
:100DB000360101C080E0CDB7DEB7E6E00C94ED0867
:100DC0000E943D060895EF92FF920F931F93CF93D9
:100DD000DF93D82FC3B10E943C087B018C010E9495
:100DE000D60580913001813029F1813038F0823090
:100DF00009F447C0833009F082C064C02D2F30E071
:100E00004C2F50E040955095242335232115310572
:100E100009F475C0C095CD23C0932B01E0922C013D
:100E2000F0922D0100932E0110932F0181E0809309
:100E3000300165C080912C0190912D01A0912E016F
:100E4000B0912F01E81AF90A0A0B1B0B8FE0E81684
:100E5000F1040105110508F452C040912B018C2FBB
:100E600090E080959095242F30E082239323009783
:100E700031F182E080933001C095C423C0932B01EF
:100E80003EC020912B01822F8C2371F093E0909330
:100E9000300180932B01E0922C01F0922D01009300
:100EA0002E0110932F012BC030E08D2F90E0D0E069
:100EB000C095D0958C239D232817390701F11092F6
:100EC00030011DC080912C0190912D01A0912E0127
:100ED000B0912F01E81AF90A0A0B1B0B8FE0E816F4
:100EE000F1040105110558F080912B018C2319F0B4
:100EF0001092300105C092E09093300101C080E073
:100F0000CDB7DEB7E6E00C94ED080E94E306089545
:100F10006F9364E06A95F1F76F910197C9F70895AF
:100F20002F928F939F932FB6809138019091390122
:100F30000196809338019093390190E080913A01B5
:100F4000891F80933A01909140019C5F90934001EA
:100F500080913F0180519742C0F09093400180936F
:100F60003F0180913B0190913C01019680933B01B0
:100F700090933C0190E080913D01891F80933D0159
:100F800080913E01891F80933E012FBE9F918F91DA
:100F90002F9018950F931F936F5F7F4F8F4F9F4F29
:100FA000660F771F881F991F25E030E040E050E072
:100FB0000E94A308B901CA011F910F9108950F93D0
:100FC0001F936F5F7F4F8F4F9F4F660F771F881F55
:100FD000991F25E030E040E050E00E94A308B901ED
:100FE000CA011F910F910895CF93DF93EC0105C0C3
:100FF00088EE93E00E94880721972097C9F7DF9138
:10100000CF9108950E94F4070895E0E7F0E0808111
:101010008E7F8083A0EBB0E08C9183608C93A1EBFA
:10102000B0E08C91807F8C938C9182608C93B89A85
:101030008081816080837894089580914101882324
:1010400029F481E0809341010E94050808950E94DF
:101050001D08E0E7F0E080818E7F808320913B01D6
:1010600030913C0140913D0150913E018081816071
:101070008083B901CA0108950E94270808950E943B
:101080001D08809170008E7F809370002091B200C7
:101090008091370190913801A0913901B0913A01C6
:1010A000B89904C030E040E050E011C08091B20037
:1010B00020913701309138014091390150913A0126
:1010C00020503F4F4F4F5F4F90E0A0E0B0E0282B03
:1010D000392B4A2B5B2B80917000816080937000CC
:1010E000B901CA0108950E943F0808950E941D0891
:1010F000E0E7F0E080818E7F808310923B011092C8
:101100003C0110923D0110923E011092400110925C
:101110003F0180818160808308950E947608089550
:1011200097FB092E07260AD077FD04D065D006D09C
:1011300000201AF4709561957F4F0895F6F7909509
:1011400081959F4F0895A1E21A2EAA1BBB1BFD019A
:101150000DC0AA1FBB1FEE1FFF1FA217B307E40796
:10116000F50720F0A21BB30BE40BF50B661F771FEE
:10117000881F991F1A9469F76095709580959095CE
:101180009B01AC01BD01CF0108952F923F924F9278
:101190005F926F927F928F929F92AF92BF92CF9207
:1011A000DF92EF92FF920F931F93CF93DF93CDB710
:1011B000DEB7CA1BDB0B0FB6F894DEBF0FBECDBF88
:1011C00009942A88398848885F846E847D848C8459
:1011D0009B84AA84B984C884DF80EE80FD800C8162
:1011E0001B81AA81B981CE0FD11D0FB6F894DEBF45
:1011F0000FBECDBFED010895AA1BBB1B51E107C077
:10120000AA1FBB1FA617B70710F0A61BB70B881F96
:10121000991F5A95A9F780959095BC01CD01089525
:10122000CF93DF938230910510F482E090E0E0915B
:101230004401F091450140E050E020E030E026C05C
:101240006081718168177907E0F06817790781F488
:10125000828193812115310531F0D90113969C9338
:101260008E9312972BC0909345018093440126C022
:101270004115510519F06417750718F4AB01E90120
:10128000DF019F0172816381E72FF62F3097C1F64E
:101290004115510501F1481B590B4430510580F4AB
:1012A00012968D919C911397209719F09B838A83B6
:1012B00004C09093450180934401FD01329646C0DD
:1012C000FD01E40FF51F8193919342505040119618
:1012D0005C934E933BC02091420130914301211514
:1012E000310541F420911C0130911D0130934301DF
:1012F0002093420120911E0130911F0121153105DB
:1013000041F42DB73EB740911A0150911B01241BA7
:10131000350BE0914201F0914301E217F307A0F48D
:101320002E1B3F0B2817390778F0AC014E5F5F4F3B
:101330002417350748F04E0F5F1F50934301409329
:1013400042018193919302C0E0E0F0E0CF01DF9190
:10135000CF910895CF93DF93009709F491C0FC01DA
:101360003297138212826091440170914501611598
:10137000710581F420813181280F391F809142014C
:10138000909143018217930799F5F0934301E093FD
:10139000420176C0DB0180E090E002C0CD01D901BE
:1013A000AE17BF0748F412962D913C911397211563
:1013B0003105A1F7CD0121C0B383A283EF0149918B
:1013C00059919E01240F351FA217B30779F42D916F
:1013D0003C911197240F351F2E5F3F4F318320839F
:1013E00012962D913C91139733832283009729F411
:1013F000F0934501E093440143C0DC011396FC9354
:10140000EE9312974D915D91A40FB51FEA17FB075C
:1014100069F420813181240F351F2E5F3F4FEC018D
:1014200039832883228133813B832A83E0E0F0E003
:1014300002C0FB01BC01DB0112968D919C911397B8
:101440000097B9F79B012E5F3F4F8D919C911197AB
:10145000820F931F40914201509143014817590751
:1014600079F4309729F4109245011092440102C09A
:101470001382128222503040309343012093420164
:10148000DF91CF9108950F931F93CF93DF938C013A
:10149000EB01009711F42097C9F181E090E06EE034
:1014A00070E00E948E0AFC019C01009789F180E89F
:1014B0008383209771F0D387C28781E883838091EB
:1014C000460190914701009721F4F0934701E09382
:1014D000460101151105E1F01187008783818260C3
:1014E00083838091480190914901009789F4F0939A
:1014F0004901E093480180914A0190914B01009786
:1015000039F4F0934B01E0934A0102C020E030E04F
:10151000C901DF91CF911F910F9108950F931F93F0
:10152000CF93DF93689F8001699F100D789F100D06
:101530001124C8010E941009C82FD92F209731F01B
:101540008C2F60E070E0A8010E94AC0ACE01DF9110
:10155000CF911F910F910895DC0101C06D9341500F
:0A1560005040E0F70895F894FFCF23
:10156A0056656C3A20005072657373204200416ED2
:10157A006420576169740001020820004C010000D0
:00000001FF
